:040000003CEF3CF0A5
:10787400C2821200000193EF3EF0300EE82EFED7D4
:107884001200C2A202D0010E1200000E1200C45057
:10789400036EC350016E03C002F01200620E016E4B
:1078A400660EE82EFED7012EFCD71200026EC2CF60
:1078B40001F0C30E0116D89002303C0B0110C26EC9
:1078C4001200026E0D0E016EFC0EE82EFED7012E84
:1078D400FCD7022EF7D71200280EEAEC3DF0BDECDF
:1078E4003CF00009D8A4FBD7060EF9EC3CF0BDEC43
:1078F4003CF00009D8A4FBD70F0EF9EC3CF0BDEC2A
:107904003CF00009D8B41200FAD7000E056E000E40
:10791400046E0AD0070E036E7D0EE82EFED7032EEA
:10792400FCD700F0044A052A0150045C0550800A83
:10793400036E0250800A0358D8B01200EBD7000E31
:107944000C6E0AAE06D0096C0A1ED8B00A2A010EC3
:107954000C6E09C001F00AC002F0036A8E0E046EB8
:107964000CC005F03CEC3EF001C009F002C00AF086
:1079740003C00BF012008A8C8A9A3FEC3CF08A8890
:107984003FEC3CF081A60AD08A983FEC3CF08A8810
:107994003FEC3CF08A988A9C010E12008A983FECD6
:1079A4003CF08A883FEC3CF08A988A9C000E1200D6
:1079B400016EF00E9316F00E811601380F0B0F0BAB
:1079C40081128A8A8A9C3FEC3CF08A883FEC3CF026
:1079D4008A98F00E811601500F0B81123FEC3CF097
:1079E4008A883FEC3CF08A980F0E93121200016EC5
:1079F400F00E9316F00E811601380F0B0F0B811247
:107A04008A9C8A9A3FEC3CF08A883FEC3CF08A9846
:107A1400F00E811601500F0B81123FEC3CF08A8866
:107A24003FEC3CF08A980F0E93121200046EF00E95
:107A34009316F00E81160450016E026A018E040E34
:107A4400036E023402320132032EFBD701500F0BB6
:107A540081128A9C8A9A3FEC3CF08A883FEC3CF085
:107A64008A98F00E811604500F0B81123FEC3CF003
:107A74008A883FEC3CF08A980F0E93121200056E30
:107A8400000EC26E000EC06ED89001303C0BC26E68
:107A940001C003F0033AF00E0316300E0316025031
:107AA4000F0B0310C16E05C003F0D8900336D890B5
:107AB4000336380E031605C004F0043A0F0E0416FC
:107AC400070E04160550800B04100310C06E01AE9F
:107AD40003D09E9C9D8CF28CC2801200000E066E18
:107AE40002AE06D0016C021ED8B0022A010E066E48
:107AF40004AE04D0036C041ED8B0042A035004104E
:107B0400D8B418D0010E056E04D0D89003360436CC
:107B1400052A04AEFAD70350015C04500258D8A0D9
:107B240004D00350015E0450025AD8900432033248
:107B3400052EF1D70650D8B404D0016C021ED8B07B
:107B4400022A01C001F002C002F01200000E066E0B
:107B540004AE06D0036C041ED8B0042A010E066ECF
:107B640002AE06D0016C021ED8B0022A010E061A1B
:107B7400000E086E000E076E03500410D8B41CD01B
:107B8400010E056E04D0D89003360436052A04AEDF
:107B9400FAD7D890073608360350015C04500258CF
:107BA400D8A005D00350015E0450025A0780D89033
:107BB40004320332052EEDD70650D8B404D0076C36
:107BC400081ED8B0082A07C001F008C002F012004D
:107BD400056EF00E8116F00E9316939C939A93986B
:107BE4008A9C8A9A8A9850EC3CF0300EF9EC3CF06E
:107BF400050E63EC3CF0300EF9EC3CF0010E63EC46
:107C04003CF0320EF9EC3CF0BDEC3CF00009D8A499
:107C1400FBD7BDEC3CF00009D8A4FBD70550F9EC28
:107C24003CF0BDEC3CF00009D8A4FBD7080EF9ECFD
:107C34003CF0BDEC3CF00009D8A4FBD70F0EF9ECE6
:107C44003CF0BDEC3CF00009D8A4FBD7010EF9ECE4
:107C54003CF0BDEC3CF00009D8A4FBD7040EF9ECD1
:107C64003CF0BDEC3CF00009D8A4FBD7800E18EC26
:107C74003DF012000450D8B405D001500210031096
:107C8400D8A40CD0000E016E000E026E000E036E1E
:107C94001200042AD890033202320132000E011479
:107CA400066E000E0214076EFE0E0314086E0650D4
:107CB40007100810D8B40CD0ECD7042A010E012602
:107CC400000E0222000E0322D89003320232013247
:107CD400000E0114066E000E0214076EFF0E03144C
:107CE400086E065007100810D8B406D0E6D704066C
:107CF400D89001360236033602BE03D0020E046069
:107D0400F6D704A0029ED890043204500312055002
:107D1400D8A4038E01C001F002C002F003C003F036
:107D24001200000E936E000E956E010E926E040EFC
:107D3400016EFE0E026ED50E41EC3DF06EEC3CF091
:107D4400BDEC3CF00009D8A4FBD7870E58EC3CF0FE
:107D54003AEC3CF043EC3CF00009D8A4FBD749ECE6
:107D64003CF001C02CF002C02DF0E10E106EFA0EB2
:107D7400116E3E0E126E2CC009F02DC00AF0A1EC5B
:107D84003CF009C00DF00AC00EF00BC00FF00CEC73
:107D94003FF00DC01CF00EC01DF00FC01EF086ECAD
:107DA4003FF01CC02CF01DC02DF02CC001F0026A65
:107DB400000E046E0A0E036EA8EC3DF001502B6E0B
:107DC400000E18EC3DF02B50300FDAEC3CF0BDEC1B
:107DD4003CF00009D8A4FBD72CC001F0026A000EC5
:107DE400046E0A0E036E70EC3DF001502B6E010E12
:107DF40018EC3DF02B50300FDAEC3CF0BDEC3CF0CD
:107E04000009D8A4FBD7030E026EE80E016E87ECBE
:107E14003CF09BD70FC013F0146A156A0E34133666
:107E240001E314801350166E1650D8A407D0000E28
:107E34000D6E000E0E6E000E0F6E120012C013F0C7
:107E4400146A156A1134133601E3148013501B6E3F
:107E54001B50D8A407D0000E0D6E000E0E6E000E3F
:107E64000F6E12001B507B0F16260FC01BF0125012
:107E74001B1A800E1B160E8E118EFF0E1016FF0E8F
:107E84001116000E1216000E176E000E186E000E5C
:107E9400196E070E1A6E0DA006D010501726115039
:107EA400182212501922D8900F320E320D32D89067
:107EB4001036113612361A2EEED7090E1A6E0DA090
:107EC40006D0105017261150182212501922D8909B
:107ED4000F320E320D32D8901932183217321A2E50
:107EE400EED717C001F018C002F019C003F016C095
:107EF40004F01BC005F03CEC3EF001C00DF002C0E4
:107F04000EF003C00FF012001EC020F0216A226A96
:107F14001D34203601E3218020502A6E2A50D8A433
:107F240009D0000E1C6E000E1D6E000E1E6E000E9B
:107F34001F6E1200170E206E1CC021F01DC022F00F
:107F44001EC023F02028246E04D0D890233222327D
:107F54002132242EFAD72150256E1D8EFF0E1C16B9
:107F6400FF0E1D16000E1E161C50266E1D50276E89
:107F74001E50286E296A8E0E2A5E2AAE16D02A500A
:107F8400800A8F0FD8B009D0000E1C6E000E1D6E33
:107F9400000E1E6E000E1F6E1200D8902932283279
:107FA400273226322A3EF9D715D0170E2A640FD06D
:107FB400000E1C6E000E1D6E000E1E6E000E1F6E57
:107FC4001200D89026362736283629362A062A5013
:107FD400D8A4F7D72550D8B408D0291E281E271EA8
:107FE400266C000E27222822292226C01CF027C036
:0C7FF4001DF028C01EF029C01FF0120074
:020000040020DA
:08000000FFFFFFFFFFFFFFFF00
:020000040030CA
:0E000000000C091EFF8080FF0FC00FE00F40B4
:00000001FF
