:0400000092EF0DF07E
:100800000054454D50455241545552410041783AAB
:10081000000047783A000041793A000047793A00F1
:1008200000417A3A0000477A3A000000C2EC0CF02E
:10083000000E0001976F4CEC0DF064EC0BF0010E14
:10084000946E82B009D0030E00019719D8A402D08B
:10085000000E01D09729976F7AEC0DF0000E1CEC7A
:100860000DF05A6E5A505C6E5B6A000E1CEC0DF077
:100870005D6E5D505B100001896F5C508A6F000EE9
:100880001CEC0DF05A6E5A505C6E5B6A000E1CEC4C
:100890000DF05D6E5D505B1000018B6F5C508C6FD6
:1008A000000E1CEC0DF05A6E5A505C6E5B6A000E26
:1008B0001CEC0DF05D6E5D505B1000018D6F5C50A7
:1008C0008E6F000E1CEC0DF05A6E5A505C6E5B6A17
:1008D000000E1CEC0DF05D6E5D505B1000018F6F23
:1008E0005C50906F000E1CEC0DF05A6E5A505C6E0E
:1008F0005B6A000E1CEC0DF05D6E5D505B1000013C
:10090000916F5C50926F000E1CEC0DF05A6E5A50B5
:100910005C6E5B6A000E1CEC0DF05D6E5D505B1052
:100920000001936F5C50946F000E1CEC0DF05A6E3A
:100930005A505C6E5B6A010E1CEC0DF05D6E5D50F2
:100940005B100001956F5C50966F8CEC0DF089C0C8
:1009500009F08AC00AF08CEC0CF009C00DF00AC056
:100960000EF00BC00FF0000E106E800E116E460ED2
:10097000126EBEEC09F00DC074F00EC075F00FC021
:1009800076F08BC009F08CC00AF08CEC0CF009C03A
:100990000DF00AC00EF00BC00FF0000E106E800EAE
:1009A000116E460E126EBEEC09F00DC077F00EC04F
:1009B00078F00FC079F08DC009F08EC00AF08CEC91
:1009C0000CF009C00DF00AC00EF00BC00FF0000EC5
:1009D000106E800E116E460E126EBEEC09F00DC048
:1009E0007AF00EC07BF00FC07CF091C009F092C08D
:1009F0000AF08CEC0CF009C00DF00AC00EF00BC030
:100A00000FF0000E106E030E116E430E126EBEEC50
:100A100009F00DC080F00EC081F00FC082F093C0CD
:100A200009F094C00AF08CEC0CF009C00DF00AC07B
:100A30000EF00BC00FF0000E106E030E116E430E81
:100A4000126EBEEC09F00DC083F00EC084F00FC032
:100A500085F095C009F096C00AF08CEC0CF009C046
:100A60000DF00AC00EF00BC00FF0000E106E030E5A
:100A7000116E430E126EBEEC09F00DC086F00EC072
:100A800087F00FC088F0000E106EAA0E116E430E94
:100A9000126E8FC009F090C00AF08CEC0CF009C007
:100AA0000DF00AC00EF00BC00FF0BEEC09F00DC047
:100AB0001CF00EC01DF00FC01EF01F0E1F6E120E98
:100AC000206E420E216E80EC07F01CC07DF01DC030
:100AD0007EF01EC07FF000019751D8A426D06A0E88
:100AE000016E000E026E0D0E036E080E046EDBEC3E
:100AF0000CF06F0E016E000E026E170E036E080EE4
:100B0000046EDBEC0CF06F0E466E74C047F075C0DF
:100B100048F076C049F077C04AF078C04BF079C011
:100B20004CF06A0E4AEC09F08CD600019705D8A467
:100B300026D06A0E016E000E026E210E036E080EA4
:100B4000046EDBEC0CF06F0E016E000E026E120EE6
:100B5000036E080E046EDBEC0CF06F0E466E7AC06E
:100B600047F07BC048F07CC049F080C04AF081C0AB
:100B70004BF082C04CF06A0E4AEC09F062D6020ECD
:100B800000019719D8A426D06A0E016E000E026EDD
:100B90001C0E036E080E046EDBEC0CF06F0E016E83
:100BA000000E026E260E036E080E046EDBEC0CF0D7
:100BB0006F0E466E83C047F084C048F085C049F090
:100BC00086C04AF087C04BF088C04CF06A0E4AECF1
:100BD00009F037D6030E00019719D8A432D66FEC6E
:100BE0000CF00009D8A4FBD7020E08EC0CF06FEC57
:100BF0000CF00009D8A4FBD7010E026E080E036E9C
:100C0000DAEC0BF07DC028F07EC029F07FC02AF01E
:100C1000600E2B6E000E2C6E2AEC06F06FEC0CF0C2
:100C20000009D8A4FBD7440E08EC0CF06FEC0CF0D4
:100C30000009D8A4FBD7600E026E000E036EDAEC3A
:100C40000BF0010E026EF40E016EA8EC0CF02EEC0F
:100C50000DF0F7D5000E436E010E426E2AAE1AD08B
:100C600028C009F029C00AF02AC00BF0000E0C6E53
:100C7000800E0D6EBF0E0E6ED0EC08F009C038F07D
:100C80000AC039F00BC03AF02BC0D9FF2CC0DAFFF4
:100C90002D0E0BD028C038F029C039F02AC03AF008
:100CA0002BC0D9FF2CC0DAFF2B0EDF6E38C001F04D
:100CB00039C002F03AC003F056EC08F001C040F031
:100CC00002C041F040C009F041C00AF08CEC0CF0C9
:100CD00009C00DF00AC00EF00BC00FF00AEC0DF0C9
:100CE0000DC01CF00EC01DF00FC01EF038C01FF06C
:100CF00039C020F03AC021F080EC07F01CC03DF074
:100D00001DC03EF01EC03FF040504110D8A40BD093
:100D100020EE01F02B50D9262C50DA22300EDF6E57
:100D2000424A432A48D0000E456E000E446E23D03E
:100D30002E0E4424D96E000E4520DA6E40C010F00D
:100D400041C011F0000E136E0A0E126EA2EC0BF0F1
:100D50001050300FDF6E40C001F041C002F0000EB5
:100D6000046E0A0E036E22EC0BF001C040F002C0CC
:100D700041F0444A452A41BE05D04150D9E14004E2
:100D8000D8B0D6D74406D8A0450645BE14D02E0EFE
:100D90004424D96E000E4520DA6E42502B24E16EB9
:100DA00043502C20E26EDFCFE7FF4406D8A0450673
:100DB000424A432AEAD742502B24D96E43502C2072
:100DC000DA6E2E0EDF6E424A432A3D503E103F102F
:100DD000D8A40BD042502B24D96E43502C20DA6E6D
:100DE000300EDF6E424A432A82D0000E456E000E5E
:100DF000446E49D03DC009F03EC00AF03FC00BF040
:100E0000000E0C6E200E0D6E410E0E6ED0EC08F032
:100E100009C03DF00AC03EF00BC03FF0000E016E6D
:100E2000800E026E3F0E036E3DC004F03EC005F022
:100E30003FC006F0DAEC0AF0D8B01BD02E0E4424E6
:100E4000D96E000E4520DA6E3DC001F03EC002F0C2
:100E50003FC003F056EC08F001C010F002C011F0E2
:100E6000000E136E0A0E126EA2EC0BF01050300F33
:100E700007D02E0E4424D96E000E4520DA6E300EB7
:100E8000DF6E444A452A3DC001F03EC002F03FC03B
:100E900003F0000E046E800E056E3F0E066EDAEC57
:100EA0000AF0D8A0A7D74406D8A04506000E3C6E8D
:100EB000000E3B6E12D02E0E3B24D96E000E3C204D
:100EC000DA6E42502B24E16E43502C20E26EDFCFCD
:100ED000E7FF424A432A3B4A3C2A3B50445C455088
:100EE000800A2D6E3C50800A2D58D8B0E4D742506D
:100EF0002B24D96E43502C20DA6E000EDF6E1200C8
:100F00001EC022F0236A246A1D34223601E32380A6
:100F10002250276E21C022F0236A246A2034223610
:100F200001E323802250266E2750D8B40BD02650E0
:100F3000275CD8B00ED0275000082624226E180E49
:100F4000226407D01FC01CF020C01DF021C01EF07D
:100F500012002650D8B40BD02750265CD8B00ED043
:100F6000265000082724226E180E226407D01CC0C9
:100F70001CF01DC01DF01EC01EF01200060E256ED6
:100F80001EBE258E21BE258C1D8EFF0E1C16FF0E4B
:100F90001D16000E1E16208EFF0E1F16FF0E2016A9
:100FA000000E21162650275CD8B01BD0D8901F36D3
:100FB00020362136260627502618D8B40DD025060F
:100FC00025C022F0070E2216D8B406D0EFD7D8904D
:100FD0001E321D321C32272A26502718D8B41FD0A3
:100FE000F6D72750265CD8B01AD0D8901C361D36BC
:100FF0001E36270627502618D8B40DD0250625C042
:1010000022F0070E2216D8B406D0EFD7D89021329E
:1010100020321F32262A26502718D8A4F7D725AE0B
:101020000CD0FF0E1C1AFF0E1D1AFF0E1E1A010E09
:101030001C26000E1D22000E1E2225AC0CD0FF0E19
:101040001F1AFF0E201AFF0E211A010E1F26000E76
:101050002022000E2122000E256E1C501F261D503E
:1010600020221E50212221AE0ED0FF0E1F1AFF0E8D
:10107000201AFF0E211A010E1F26000E2022000E3C
:101080002122010E256E1FC001F020C002F021C0F8
:1010900003F027C004F025C005F031EC0AF001C0D0
:1010A0001CF002C01DF003C01EF0120003C005F0CA
:1010B000066A076A0234053601E3068005500F6EA2
:1010C0000F50D8A409D0000E016E000E026E000E63
:1010D000036E000E046E1200170E056E01C006F0BE
:1010E00002C007F003C008F00528096E04D0D890AC
:1010F000083207320632092EFAD706500A6E028EDF
:10110000FF0E0116FF0E0216000E031601500B6EA5
:1011100002500C6E03500D6E0E6A8E0E0F5E0FAEF7
:1011200016D00F50800A8F0FD8B009D0000E016E74
:10113000000E026E000E036E000E046E1200D890B8
:101140000E320D320C320B320F3EF9D715D0170E7E
:101150000F640FD0000E016E000E026E000E036EC3
:10116000000E046E1200D8900B360C360D360E367B
:101170000F060F50D8A4F7D70A50D8B408D00E1EC7
:101180000D1E0C1E0B6C000E0C220D220E220BC02D
:1011900001F00CC002F00DC003F00EC004F012000C
:1011A0000BC00FF0106A116A0A340F3601E3108089
:1011B0000F50126E1250D8A407D0000E096E000E08
:1011C0000A6E000E0B6E12000EC00FF0106A116A4C
:1011D0000D340F3601E310800F50176E1750D8A44E
:1011E00007D0000E096E000E0A6E000E0B6E120084
:1011F00017507B0F12260BC017F00E50171A800ED7
:1012000017160A8E0D8EFF0E0C16FF0E0D16000E11
:101210000E16000E136E000E146E000E156E070EE5
:10122000166E09A006D00C5013260D5014220E5035
:101230001522D8900B320A320932D8900C360D366E
:101240000E36162EEED7090E166E09A006D00C50DB
:1012500013260D5014220E501522D8900B320A324C
:101260000932D890153214321332162EEED713C02D
:1012700001F014C002F015C003F012C004F017C052
:1012800005F031EC0AF001C009F002C00AF003C019
:101290000BF01200596E6FEC0CF00009D8A4FBD7CC
:1012A000000E08EC0CF06FEC0CF00009D8A4FBD792
:1012B00059504D6E4E6A4DC002F04EC003F0F3EC33
:1012C0000CF047C028F048C029F049C02AF04F0E62
:1012D0002B6E000E2C6E2AEC06F06FEC0CF0000961
:1012E000D8A4FBD7030E08EC0CF06FEC0CF000094F
:1012F000D8A4FBD74F0E026E000E036EF3EC0CF079
:101300006FEC0CF00009D8A4FBD7400E08EC0CF0F1
:101310006FEC0CF00009D8A4FBD746504D6E4E6A16
:101320004DC002F04EC003F0F3EC0CF04AC028F0C0
:101330004BC029F04CC02AF04F0E2B6E000E2C6EC5
:101340002AEC06F06FEC0CF00009D8A4FBD7430E92
:1013500008EC0CF06FEC0CF00009D8A4FBD74F0E92
:10136000026E000E036EF3EC0CF0010E026EF40E32
:10137000016EA8EC0CF02EEC0DF012000FC013F073
:10138000146A156A0E34133601E3148013501A6E72
:101390001A50D8A407D0000E0D6E000E0E6E000E6F
:1013A0000F6E120012C013F0146A156A113413364E
:1013B00001E3148013501B6E1B50D8A407D0000EFD
:1013C0000D6E000E0E6E000E0F6E1200000E176EE8
:1013D000000E186E000E196E1B50890F1A5E0FC09A
:1013E0001BF012501B1A800E1B160E8EFF0E0D16D0
:1013F000FF0E0E16000E0F16118EFF0E1016FF0EAA
:101400001116000E1216180E166ED89017361836D2
:10141000193610500D5C11500E5812500F58D8A0AC
:1014200007D010500D5E11500E5A12500F5A1780EF
:10143000D8900D360E360F36162EE7D717C001F0AE
:1014400018C002F019C003F01AC004F01BC005F068
:1014500031EC0AF001C00DF002C00EF003C00FF035
:1014600012000450D8B405D0015002100310D8A4C3
:101470000CD0000E016E000E026E000E036E120004
:10148000042AD890033202320132000E0114066E93
:10149000000E0214076EFE0E0314086E06500710AD
:1014A0000810D8B40CD0ECD7042A010E0126000E87
:1014B0000222000E0322D890033202320132000EC3
:1014C0000114066E000E0214076EFF0E0314086E60
:1014D000065007100810D8B406D0E6D70406D890F6
:1014E00001360236033602BE03D0020E0460F6D780
:1014F00004A0029ED8900432045003120550D8A4D0
:10150000038E01C001F002C002F003C003F012001C
:10151000056EF00E8316F00E9516959C959A95988B
:101520008C9C8C9A8C9884EC0DF0300E50EC0CF066
:10153000050E59EC0DF0300E50EC0CF0010E59EC8C
:101540000DF0320E50EC0CF06FEC0CF00009D8A44A
:10155000FBD76FEC0CF00009D8A4FBD7055050EC7A
:101560000CF06FEC0CF00009D8A4FBD7080E50EC7F
:101570000CF06FEC0CF00009D8A4FBD70F0E50EC68
:101580000CF06FEC0CF00009D8A4FBD7010E50EC66
:101590000CF06FEC0CF00009D8A4FBD7040E50EC53
:1015A0000CF06FEC0CF00009D8A4FBD7800E08EC0F
:1015B0000CF0120003AE16D001C007F002C008F014
:1015C00003C009F0071E081E091E072A000E082284
:1015D0000922000E0724016E000E0820026E800E04
:1015E0000920036E06AE16D004C007F005C008F04F
:1015F00006C009F0071E081E091E072A000E082251
:101600000922000E0724046E000E0820056E800ECD
:101610000920066E000E011A000E021A800E031A2F
:10162000000E041A000E051A800E061A0450015C02
:101630000550025806500358D8B002D0D890120076
:10164000D8801200000E066E04AE06D0036C041E95
:10165000D8B0042A010E066E02AE06D0016C021E3E
:10166000D8B0022A010E061A000E086E000E076E90
:1016700003500410D8B41CD0010E056E04D0D890CD
:1016800003360436052A04AEFAD7D8900736083652
:101690000350015C04500258D8A005D00350015EED
:1016A0000450025A0780D89004320332052EEDD739
:1016B0000650D8B404D0076C081ED8B0082A07C05A
:1016C00001F008C002F01200000E026E960E016ECC
:1016D000A8EC0CF0D00E3DEC0DF0190E6FEC0DF0F7
:1016E000070E6FEC0DF08CEC0DF0D00E3DEC0DF014
:1016F0006B0E6FEC0DF0010E6FEC0DF08CEC0DF03D
:10170000D00E3DEC0DF01A0E6FEC0DF0000E6FECEC
:101710000DF08CEC0DF0D00E3DEC0DF01B0E6FECCF
:101720000DF0180E6FEC0DF08CEC0DF0D00E3DECC2
:101730000DF0380E6FEC0DF0010E6FEC0DF08CEC2F
:101740000DF01200000E156E11AE06D0106C111EB9
:10175000D8B0112A010E156E13AE04D0126C131EF0
:10176000D8B0132A12501310D8B418D0010E146E2A
:1017700004D0D89012361336142A13AEFAD712506A
:10178000105C13501158D8A004D01250105E1350A2
:10179000115AD89013321232142EF1D71550D8B4F2
:1017A00004D0106C111ED8B0112A10C010F011C056
:1017B00011F0120019D06FEC0CF00009D8A4FBD77F
:1017C00002C0F6FF03C0F7FFF86A070EF76403D004
:1017D0000800F55005D0F6CFE1FFF7CFE2FFE75064
:1017E00031EC0CF0024A032A02C0F6FF03C0F7FFF7
:1017F000F86A070EF76403D00800F55005D0F6CF5D
:10180000E1FFF7CFE2FFE7500009D8B41200D3D7C9
:10181000046EF00E9516F00E83160450016E026AE7
:10182000018E040E036E023402320132032EFBD706
:1018300001500F0B83128C9C8C9AA1EC0DF08C88BC
:10184000A1EC0DF08C98F00E831604500F0B831250
:10185000A1EC0DF08C88A1EC0DF08C980F0E951278
:101860001200016EF00E9516F00E831601380F0B64
:101870000F0B83128C8A8C9CA1EC0DF08C88A1EC50
:101880000DF08C98F00E831601500F0B8312A1EC13
:101890000DF08C88A1EC0DF08C980F0E95121200B3
:1018A000016EF00E9516F00E831601380F0B0F0B1C
:1018B00083128C9C8C9AA1EC0DF08C88A1EC0DF01D
:1018C0008C98F00E831601500F0B8312A1EC0DF0D3
:1018D0008C88A1EC0DF08C980F0E951212008C8C58
:1018E0008C9AA1EC0DF08C88A1EC0DF083A60AD0A7
:1018F0008C98A1EC0DF08C88A1EC0DF08C988C9C50
:10190000010E12008C98A1EC0DF08C88A1EC0DF06A
:101910008C988C9C000E1200000E0C6E0AAE06D045
:10192000096C0A1ED8B00A2A010E0C6E09C001F01B
:101930000AC002F0036A8E0E046E0CC005F031EC92
:101940000AF001C009F002C00AF003C00BF0120057
:10195000000E056E000E046E0AD0070E036E7D0E9B
:10196000E82EFED7032EFCD700F0044A052A0150CA
:10197000045C0550800A036E0250800A0358D8B0F8
:101980001200EBD7280E88EC0AF06FEC0CF000097F
:10199000D8A4FBD7060E50EC0CF06FEC0CF000094D
:1019A000D8A4FBD70C0E50EC0CF06FEC0CF0000937
:1019B000D8B41200FAD701C005F002C006F004D076
:1019C000054A062A034A042A03C0F6FF04C0F7FFAB
:1019D00005C0D9FF06C0DAFF0800F5CFDFFFDF50F2
:1019E000D8B41200EDD70ED06FEC0CF00009D8A4DB
:1019F000FBD702C0D9FF03C0DAFFDF5031EC0CF097
:101A0000024A032A02C0D9FF03C0DAFFDF50D8B46C
:101A10001200EAD70D500E100F10D8B406D0000EE9
:101A20000D1A000E0E1A800E0F1A0DC00DF00EC00A
:101A30000EF00FC00FF01200016EC586C7A0FED7D2
:101A4000C9CF02F00150D8A403D09CEC0DF002D015
:101A500097EC0DF0A5EC0DF0025012006FEC0CF0BD
:101A60000009D8A4FBD7010E50EC0CF0000E026E5A
:101A7000500E016EA8EC0CF01200026EC580C5B0CD
:101A8000FED79E96C7A6FAD702506FEC0DF0C5ACF4
:101A900012008CEC0DF0F2D793809382500EC76E3B
:101AA000280EC66E000EC56E310EC86E9D869E96BF
:101AB0001200026E0D0E016EFC0EE82EFED7012EF6
:101AC000FCD7022EF7D71200026EC582C5B2FED730
:101AD0009E96C7A6120002506FEC0DF01200016E28
:101AE00001C0C9FFA5EC0DF0C5AC02D0010E12007B
:101AF000020E1200D00E3DEC0DF03B0E6FEC0DF01F
:101B0000D10E64EC0DF01200620E016E660EE82E2E
:101B1000FED7012EFCD71200C584C5B4FED79E9611
:101B2000C7501200000EF86E000116EF04F0C58ACF
:101B3000C588C5A81200FDD7C59AC588C5A81200DA
:101B4000FDD7300EE82EFED712009EA6FED79E9639
:021B5000120081
:020000040020DA
:08000000FFFFFFFFFFFFFFFF00
:020000040030CA
:0E000000000C191EFF0181FF0FC00FE00F4022
:00000001FF
