:0400000007EF00F016
:0A0008003882CEED04F0E2EF07F0BD
:100800000044495354414E4349412028636D290017
:050810002D2D2D00005C
:1008160060C026F061C027F0000E296E0A0E286E11
:1008260098EC06F02650300F0001646F60C026F089
:1008360061C027F0000E296E0A0E286ED3EC05F073
:1008460026C060F027C061F060C026F061C027F0C6
:10085600000E296E0A0E286E98EC06F02650300F10
:100866000001656F60C026F061C027F0000E296E9A
:100876000A0E286ED3EC05F026C060F027C061F0A2
:1008860060C026F061C027F0000E296E0A0E286EA1
:1008960098EC06F02650300F0001666F62C0D9FF53
:1008A60063C0DAFF66C0DFFF20EE01F06251D92691
:1008B6006351DA2265C0DFFF20EE02F06251D926CD
:1008C6006351DA2264C0DFFF20EE03F06251D926BD
:1008D6006351DA22000EDF6E1200CFEC07F02EC055
:1008E60026F02FC027F030C028F031C029F03A0E8C
:1008F6002A6E000E2B6E000E2C6E000E2D6E15EC61
:1009060006F0010E262400016B6F000E27206C6F87
:100916006BC060F06CC061F0670E626F000E636FB3
:100926000BEC04F0010EFEEC06F084EC07F0000977
:10093600D8A4FBD7010E276E080E286ED0EC06F061
:1009460000016C5104E1030E6B5DD8A006D02D0E9C
:100956006B5D010E6C59D8A00FD0470EFEEC06F069
:1009660084EC07F00009D8A4FBD7100E276E080EFA
:10097600286ED0EC06F01200470EFEEC06F084EC72
:1009860007F00009D8A4FBD7670E276E000E286E65
:10099600D0EC06F012000600FACF14F0FBCF15F0EB
:1009A600E9CF16F0EACF17F0E1CF18F0E2CF19F051
:1009B600D9CF1AF0DACF1BF0F3CF1CF0F4CF1DF02D
:1009C600F6CF1EF0F7CF1FF0F8CF20F0F5CF21F0CD
:1009D60038C022F039C023F03AC024F03BC025F0DD
:1009E6009EA009D0010E3426000E3522362237226B
:1009F6009E50FE0B05D09EA404D02AEC05F0000EF6
:100A06009E6E25C03BF024C03AF023C039F022C0C8
:100A160038F021C0F5FF20C0F8FF1FC0F7FF1EC049
:100A2600F6FF1DC0F4FF1CC0F3FF1BC0DAFF1AC09F
:100A3600D9FF19C0E2FF18C0E1FF17C0EAFF16C0D0
:100A4600E9FF15C0FBFF14C0FAFF389211003350BE
:100A5600D8A414D0000E346E000E356E000E366E1D
:100A6600000E376E010E336E000E026E000E016E22
:100A760039EC08F0840E1DEC08F01200FCEC07F0CF
:100A860001C012F002C013F034C00EF035C00FF0F2
:100A960036C010F037C011F00FC011F00EC010F0C4
:100AA6000F6A0E6A12500E242E6E13500F202F6EF0
:100AB600000E1020306E000E1120316E2EC001F097
:100AC6002FC002F030C003F031C004F0050E056EF1
:100AD600000E066E000E076E000E086E57EC06F04E
:100AE60001C02EF002C02FF003C030F004C031F078
:100AF600000E336E850E1DEC08F012002A6EF00E05
:100B06008316F00E9516959A959C95988C9A8C9CC2
:100B16008C98EFEC07F0300E46EC07F0050E08EC6B
:100B260008F0300E46EC07F0010E08EC08F0320E25
:100B360046EC07F084EC07F00009D8A4FBD784EC58
:100B460007F00009D8A4FBD72A5046EC07F084EC3E
:100B560007F00009D8A4FBD7080E46EC07F084EC92
:100B660007F00009D8A4FBD70F0E46EC07F084EC7B
:100B760007F00009D8A4FBD7010E46EC07F084EC79
:100B860007F00009D8A4FBD7040E46EC07F084EC66
:100B960007F00009D8A4FBD7800EFEEC06F0120081
:100BA600000E2B6E29AE06D0286C291ED8B0292A35
:100BB600010E2B6E27AE06D0266C271ED8B0272A2C
:100BC600010E2B1A000E2D6E000E2C6E28502910C9
:100BD600D8B41CD0010E2A6E04D0D89028362936F7
:100BE6002A2A29AEFAD7D8902C362D362850265CDC
:100BF60029502758D8A005D02850265E2950275AB4
:100C06002C80D890293228322A2EEDD72B50D8B4F2
:100C160004D02C6C2D1ED8B02D2A2CC026F02DC049
:100C260027F01200000E0001606F000E616F000ECB
:100C3600626F000E636F2A502B102C102D10D8B443
:100C46002AD0010E646F06D0D8902A362B362C3661
:100C56002D36642B2DAEF8D7D890603761376237C2
:100C660063372A50265C2B5027582C5028582D5075
:100C76002958D8A009D02A50265E2B50275A2C5026
:100C8600285A2D50295A6081D8902D322C322B3279
:100C96002A32642FE1D760C026F061C027F062C017
:100CA60028F063C029F01200000E096E000E0A6ECD
:100CB600000E0B6E000E0C6E055006100710081085
:100CC600D8B42AD0010E0D6E06D0D8900536063659
:100CD600073608360D2A08AEF8D7D89009360A36F0
:100CE6000B360C360550015C065002580750035867
:100CF60008500458D8A009D00550015E0650025A83
:100D06000750035A0850045A0980D890083207320F
:100D1600063205320D2EE1D709C001F00AC002F0F5
:100D26000BC003F00CC004F01200000E2B6E27AEB1
:100D360006D0266C271ED8B0272A010E2B6E29AEA8
:100D460004D0286C291ED8B0292A28502910D8B4D6
:100D560018D0010E2A6E04D0D890283629362A2AB1
:100D660029AEFAD72850265C29502758D8A004D097
:100D76002850265E2950275AD890293228322A2E02
:100D8600F1D72B50D8B404D0266C271ED8B0272A0A
:100D960026C026F027C027F0120019D084EC07F0F1
:100DA6000009D8A4FBD727C0F6FF28C0F7FFF86ACA
:100DB600070EF76403D00800F55005D0F6CFE9FF1B
:100DC600F7CFEAFFEF5065EC07F0274A282A27C03D
:100DD600F6FF28C0F7FFF86A070EF76403D008008D
:100DE600F55005D0F6CFE9FFF7CFEAFFEF5000093F
:100DF600D8B41200D3D7296EF00E9516F00E8316CE
:100E06002950266E276A268E040E286E273427322E
:100E16002632282EFBD726500F0B83128C9A8C9CD9
:100E260042EC08F08C8842EC08F08C98F00E8316A1
:100E360029500F0B831242EC08F08C8842EC08F024
:100E46008C980F0E95121200000E936E040E946E7F
:100E5600A1EC07F0070EB46EC50EBAEC07F0B70E9C
:100E660030EC08F0850E13EC08F09F809F84D09E2E
:100E7600C00EF26E000E276E000E266E27EC08F0EE
:100E860070EC04F0FDD7266EF00E9516F00E831664
:100E960026380F0B0F0B83128C9A8C9C42EC08F0B1
:100EA6008C8842EC08F08C98F00E831626500F0BB7
:100EB600831242EC08F08C8842EC08F08C980F0EF6
:100EC60095121200266EF00E9516F00E8316263831
:100ED6000F0B0F0B83128C8C8C9A42EC08F08C88CB
:100EE60042EC08F08C98F00E831626500F0B8312F6
:100EF60042EC08F08C8842EC08F08C980F0E9512A4
:100F060012008C8A8C9C42EC08F08C8842EC08F02B
:100F160083A60AD08C9842EC08F08C8842EC08F044
:100F26008C988C9A010E12008C9842EC08F08C88F2
:100F360042EC08F08C988C9A000E1200280E81EC78
:100F460005F084EC07F00009D8A4FBD7060E46ECA2
:100F560007F084EC07F00009D8A4FBD70C0E46EC8A
:100F660007F084EC07F00009D8B41200FAD7266E11
:100F760026507E0BCD6E26AC02D0CD8E01D0CD9EF6
:100F8600000ECF6E000ECE6E9E9026AE02D09D80D5
:100F960001D09D90CD8012008280100EE82EFED7E3
:100FA60000D08290020E276E860E266E990EE82ECF
:100FB600FED7262EFCD7272EFAD700F0120000EE19
:100FC6002EF00A0EEE6AE806FDE138903892000E21
:100FD600F86E000127EF07F0020E276E860E266ECA
:100FE600990EE82EFED7262EFCD7272EFAD700F02C
:100FF600120032909EB43280BECF03F0BFCF04F011
:1010060003C001F004C002F01200276E0D0E266E1A
:10101600FC0EE82EFED7262EFCD7272EF7D7120079
:10102600266E26500F0BBD6E26AE02D09E949D8472
:1010360094841200016E01500F0BBD6E01AE02D0FA
:101046009E949D849484120026C028F027C029F01F
:1010560029C0CFFF28C0CEFF1200266EB150B70BB5
:10106600B16E2650480BB110B16E120001C003F0EC
:1010760002C004F004C0CFFF03C0CEFF1200300E42
:06108600E82EFED7120067
:020000040020DA
:08000000FFFFFFFFFFFFFFFF00
:020000040030CA
:0E000000000C091EFF8180FF0FC00FE00F40B3
:00000001FF
