:040000009AEF08F07B
:10080000004944204441205441470000226E020E1A
:100810001F6E000E216E000E1E6E09D0120E216E8C
:10082000100E03D0770E216E300E1E6E07D02250B0
:100830000C0AD8B4F7D7020AD8B4F0D7000E026E6B
:10084000020E016E800E21C01AF01B6A1A10036E90
:100850001B50046E0FEC07F0800E0B6E040EBFEC05
:1008600008F0800E0B6E0A0E6DEC09F0000E026EA1
:10087000010E016E000E046E000E036E0FEC07F009
:10088000000E246E000E236E13D0000E026E090EB1
:10089000016E23501324D96E24501420DA6EDF50D9
:1008A0001A6E1A50036E046A0FEC07F0234A242ACA
:1008B00015501A6E1B6A1A50235C1B502458D8A07E
:1008C000E4D7000E026E010E016E22C003F0046A2E
:1008D0000FEC07F00C0E2218D8A405D0800E0B6E7A
:1008E0000D0E6DEC09F023682468000E026E040EF4
:1008F000016EBDEC06F00150256E2306D8A024063B
:1009000023502410D8A425B005D025501E1400096A
:10091000D8B4EBD7800E0B6E0D0EBFEC08F0235051
:100920002410D8B48DD0000E026E060E016EBDEC00
:1009300006F01B0E0116000E021601500210D8A47C
:100940007DD0000E1F6E255021141A6E1AA002D001
:10095000010E1F6E0C0E2218D8A472D0000E026E6B
:100960000A0E016EBDEC06F00150256E000E026EFF
:100970000C0E016EBDEC06F00150070B206E2050EE
:10098000D8B421D0F80E1A6EFF0E1B6E205025C071
:100990001CF01D6AD8901C361D36D8901C361D36AA
:1009A000D8901C361D361C26000E1D221A501C26FF
:1009B0001B501D2218C0D9FF19C0DAFF1CC0DEFF72
:1009C0001DC0DDFF0AD02550080D18C0D9FF19C081
:1009D000DAFFF3CFDEFFF4CFDDFF2550D8A402D03D
:1009E000010E256E100E256402D0100E256E000E2D
:1009F000246E000E236E10D023501624D96E24507E
:100A00001720DA6E000E026E090E016EBDEC06F0C4
:100A10000150DF6E234A242A25501A6E1B6A1A5091
:100A2000235C1B502458D8A0E7D723501624D96E36
:100A300024501720DA6E000EDF6E02D0020E1F6EF9
:100A40001F5012000F0EC16E770ED36E000E926E05
:100A5000020E956E9468000E936E57EC07F03BEC17
:100A600009F0000E386E000E376E000E3A6E010E61
:100A7000396E000E3C6E000E3B6E000E3E6E000E98
:100A80003D6E000E406E000E3F6E000E426E000E78
:100A9000416E030E71EC08F01EEC09F00009D8A4B9
:100AA000FBD7010E026E080E036E43EC08F020EE39
:100AB00058F010EE32F0040EDBCFE3FFE806FCE264
:100AC000540E2C6E000E2D6EBEEC09F00009D8B449
:100AD000F7D7430E2E6E000E2F6E86EC09F000093C
:100AE000D8B4EED780B002D0808001D08090010EC3
:100AF000026EF40E016E54EC09F0000E536E400EBF
:100B0000526E525071EC08F01EEC09F00009D8A4A6
:100B1000FBD7000E576E000E566E57BE06D05750CC
:100B2000CFE1050E565CD8B0CBD7430E5624D96E14
:100B3000000E5720DA6EDF50316E3150096E0A6AAE
:100B40004D0E0B6E000E0C6EB5EC05F04D0E026EE8
:100B5000000E036E43EC08F0040E5224526E000E99
:100B60005320536E564A572AD8D709C001F00AC0FD
:100B700002F0000E046E0A0E036EDCEC07F001506A
:100B8000300F0D6E09C001F00AC002F0000E046EB5
:100B90000A0E036E9AEC07F001C009F002C00AF0D9
:100BA00009C001F00AC002F0000E046E0A0E036EC6
:100BB000DCEC07F00150300F0E6E09C001F00AC0E6
:100BC00002F0000E046E0A0E036E9AEC07F001C0EC
:100BD00009F002C00AF009C001F00AC002F0000EDC
:100BE000046E0A0E036EDCEC07F00150300F0F6E3E
:100BF0000BC0D9FF0CC0DAFF0FC0DFFF20EE01F001
:100C00000B50D9260C50DA220EC0DFFF20EE02F086
:100C10000B50D9260C50DA220DC0DFFF20EE03F076
:100C20000B50D9260C50DA22000EDF6E1200000E97
:100C3000296E000E026E0D0E016E000E046E000E87
:100C4000036E0FEC07F026C0D9FF27C0DAFF930E22
:100C5000DF6E20EE01F02650D9262750DA22200E32
:100C6000DF6E080E0B6E080EBFEC08F026C013F006
:100C700027C014F0020E156E26C016F027C017F01C
:100C80002A0E186E000E196E0C0E06EC04F02C6E77
:100C90002C50D8A41ED0000E2D6E030E2D6401D052
:100CA0000CD02D50010DF3502624D96EF45027207E
:100CB000DA6EDF50291A2D2AF0D720EE04F02650E4
:100CC000D9262750DA222950DE18D8B402D0020ED5
:100CD0002C6E2C501200056EF00E8316F00E951639
:100CE000959A959C95988C9A8C9C8C98D7EC09F049
:100CF000300EFFEC08F0050ECCEC09F0300EFFECE6
:100D000008F0010ECCEC09F0320EFFEC08F01EECFE
:100D100009F00009D8A4FBD71EEC09F00009D8A4FB
:100D2000FBD70550FFEC08F01EEC09F00009D8A431
:100D3000FBD7080EFFEC08F01EEC09F00009D8A460
:100D4000FBD70F0EFFEC08F01EEC09F00009D8A449
:100D5000FBD7010EFFEC08F01EEC09F00009D8A447
:100D6000FBD7040EFFEC08F01EEC09F00009D8A434
:100D7000FBD7800E71EC08F01200000E086E000E1A
:100D8000076E8192819401C003F002C004F0D890F4
:100D9000033604367E0E0316000E0416800E031072
:100DA000056E0450066E000E0A6E080E096E09509C
:100DB0000A10D8B414D005AE03D0036A032A01D0B8
:100DC000036A81500318FE0B0318816E8182D8904C
:100DD0000536063681920906D8A00A06E8D7000E25
:100DE0000A6E080E096E10D08182D8900736083638
:100DF00082AE03D0036A032A01D0036A03500712AC
:100E000081920906D8A00A0609500A10D8A4ECD786
:100E10008184818207C001F008C002F01200819233
:100E2000819401C005F002C006F0D8900536063660
:100E30007E0E0514076E086A000E0A6E080E096E13
:100E400009500A10D8B414D007AE03D0056A052A99
:100E500001D0056A81500518FE0B0518816E81824C
:100E6000D8900736083681920906D8A00A06E8D736
:100E7000000E0A6E080E096E13D003AE03D0056A89
:100E8000052A01D0056A81500518FE0B0518816EF0
:100E90008182D8900336043681920906D8A00A06CA
:100EA00009500A10D8A4E9D7818481821200818276
:100EB00081869CEC09F0000E026E2A0E016E000E77
:100EC000046E8D0E036E0FEC07F0000E026E2B0EFB
:100ED000016E000E046E3E0E036E0FEC07F0000E66
:100EE000026E2D0E016E000E046E1E0E036E0FECD0
:100EF00007F0000E026E2C0E016E000E046E000E46
:100F0000036E0FEC07F0000E026E150E016E000E60
:100F1000046E400E036E0FEC07F0000E026E110E11
:100F2000016E000E046E3D0E036E0FEC07F0AEEC8A
:100F300009F01200000E066E04AE06D0036C041E0B
:100F4000D8B0042A010E066E02AE06D0016C021E55
:100F5000D8B0022A010E061A000E086E000E076EA7
:100F600003500410D8B41CD0010E056E04D0D890E4
:100F700003360436052A04AEFAD7D8900736083669
:100F80000350015C04500258D8A005D00350015E04
:100F90000450025A0780D89004320332052EEDD750
:100FA0000650D8B404D0076C081ED8B0082A07C071
:100FB00001F008C002F01200000E066E02AE06D06C
:100FC000016C021ED8B0022A010E066E04AE04D0D7
:100FD000036C041ED8B0042A03500410D8B418D0EF
:100FE000010E056E04D0D89003360436052A04AEEF
:100FF000FAD70350015C04500258D8A004D0035023
:10100000015E0450025AD89004320332052EF1D703
:101010000650D8B404D0016C021ED8B0022A01C018
:1010200001F002C002F01200286E000E026E0D0EDA
:10103000016E000E046E070E036E0FEC07F026C063
:10104000D9FF27C0DAFF28C0DFFF26C013F027C072
:1010500014F0010E156E26C016F027C017F02A0EE8
:10106000186E000E196E0C0E06EC04F0296E295055
:10107000D8A405D0100E2A182B10D8B402D0020E16
:10108000296E2950120019D01EEC09F00009D8A4CD
:10109000FBD702C0F6FF03C0F7FFF86A070EF7643C
:1010A00003D00800F55005D0F6CFE9FFF7CFEAFFEF
:1010B000EF50E0EC08F0024A032A02C0F6FF03C03A
:1010C000F7FFF86A070EF76403D00800F55005D063
:1010D000F6CFE9FFF7CFEAFFEF500009D8B41200CE
:1010E000D3D7046EF00E9516F00E83160450016EE1
:1010F000026A018E040E036E023402320132032EA4
:10110000FBD701500F0B83128C9A8C9CE0EC09F0FA
:101110008C88E0EC09F08C98F00E831604500F0BCD
:101120008312E0EC09F08C88E0EC09F08C980F0E4B
:1011300095121200C80EF66E130EF76E000EF86EC2
:1011400000EE60F010EE06F00900F5CFEEFFE5507E
:10115000E150FAE1CE0EF66E130EF76E000EF86E49
:1011600000EE58F010EE05F00900F5CFEEFFE55067
:10117000E150FAE1000EF86E000122EF05F0126E68
:10118000000E116E000E106E12C001F0026ABDEC6E
:1011900006F001C010F002C011F012C001F0026AA6
:1011A0000B500C6E0D6A0C1C0E6E0D1C0F6E105049
:1011B0000E14036E11500F14046E0FEC07F01200A2
:1011C000016EF00E9516F00E831601380F0B0F0B03
:1011D00083128C8C8C9AE0EC09F08C88E0EC09F09E
:1011E0008C98F00E831601500F0B8312E0EC09F07F
:1011F0008C88E0EC09F08C980F0E95121200016EAD
:10120000F00E9516F00E831601380F0B0F0B83129C
:101210008C9A8C9CE0EC09F08C88E0EC09F08C98BE
:10122000F00E831601500F0B8312E0EC09F08C884E
:10123000E0EC09F08C980F0E951212008C8A8C9CB1
:10124000E0EC09F08C88E0EC09F083A60AD08C98D9
:10125000E0EC09F08C88E0EC09F08C988C9A010E97
:1012600012008C98E0EC09F08C88E0EC09F08C9886
:101270008C9A000E1200280E6BEC06F01EEC09F0A2
:101280000009D8A4FBD7060EFFEC08F01EEC09F00D
:101290000009D8A4FBD70C0EFFEC08F01EEC09F0F7
:1012A0000009D8B41200FAD7000E056E000E046EC5
:1012B00009D0030E036E980EE82EFED7032EFCD73E
:1012C000044A052A0150045C0550800A036E02504E
:1012D000800A0358D8B01200ECD70E6E000E0D6EC7
:1012E000000E0C6E0EC001F0026ABDEC06F001C0EB
:1012F0000CF002C00DF00EC001F0026A0C500B1091
:10130000036E0D50046E0FEC07F012002EC026F095
:101310002FC027F017EC06F0306E20EE05F02E50AF
:10132000D9262F50DA22000EDF6E3050D8A402D01A
:10133000010E1200000E1200818600D0819600D0AE
:10134000818600D0000E026E010E016E000E046E4A
:101350000F0E036E0FEC07F000D01200000E026EAD
:10136000140E016EBDEC06F001C00FF002C010F0CB
:10137000030E0B6E140E6DEC09F012002CC026F05B
:101380002DC027F0260E14EC08F00009D8A402D0D6
:10139000010E1200000E1200026E0D0E016EFC0E08
:1013A000E82EFED7012EFCD7022EF7D712009C0E96
:1013B000016ED70EE82EFED7012EFCD700F01200EA
:1013C000300EE82EFED71200FFFFFFFFFFFF14B51F
:0313D000CEFC0050
:020000040020DA
:08000000FFFFFFFFFFFFFFFF00
:020000040030CA
:0E000000000B091EFF0080FF0FC00FE00F4035
:00000001FF
