:04000000F7EF08F01E
:10080000004944204441205441470000226E020E1A
:100810001F6E000E216E000E1E6E09D0120E216E8C
:10082000100E03D0770E216E300E1E6E07D02250B0
:100830000C0AD8B4F7D7020AD8B4F0D7000E026E6B
:10084000020E016E800E21C01AF01B6A1A10036E90
:100850001B50046E8CEC06F0800E0B6E040ED6EC72
:1008600007F0800E0B6E0A0E84EC08F0000E026E8C
:10087000010E016E000E046E000E036E8CEC06F08D
:10088000000E246E000E236E13D0000E026E090EB1
:10089000016E23501324D96E24501420DA6EDF50D9
:1008A0001A6E1A50036E046A8CEC06F0234A242A4E
:1008B00015501A6E1B6A1A50235C1B502458D8A07E
:1008C000E4D7000E026E010E016E22C003F0046A2E
:1008D0008CEC06F00C0E2218D8A405D0800E0B6EFE
:1008E0000D0E84EC08F023682468000E026E040EDE
:1008F000016E3AEC06F00150256E2306D8A02406BE
:1009000023502410D8A425B005D025501E1400096A
:10091000D8B4EBD7800E0B6E0D0ED6EC07F023503B
:100920002410D8B48DD0000E026E060E016E3AEC83
:1009300006F01B0E0116000E021601500210D8A47C
:100940007DD0000E1F6E255021141A6E1AA002D001
:10095000010E1F6E0C0E2218D8A472D0000E026E6B
:100960000A0E016E3AEC06F00150256E000E026E82
:100970000C0E016E3AEC06F00150070B206E205071
:10098000D8B421D0F80E1A6EFF0E1B6E205025C071
:100990001CF01D6AD8901C361D36D8901C361D36AA
:1009A000D8901C361D361C26000E1D221A501C26FF
:1009B0001B501D2218C0D9FF19C0DAFF1CC0DEFF72
:1009C0001DC0DDFF0AD02550080D18C0D9FF19C081
:1009D000DAFFF3CFDEFFF4CFDDFF2550D8A402D03D
:1009E000010E256E100E256402D0100E256E000E2D
:1009F000246E000E236E10D023501624D96E24507E
:100A00001720DA6E000E026E090E016E3AEC06F047
:100A10000150DF6E234A242A25501A6E1B6A1A5091
:100A2000235C1B502458D8A0E7D723501624D96E36
:100A300024501720DA6E000EDF6E02D0020E1F6EF9
:100A40001F5012000F0EC16E770ED36E000E926E05
:100A5000020E956E9468000E936ED4EC06F052EC84
:100A600008F0030EADEC07F035EC08F00009D8A44F
:100A7000FBD7010E026E080E036E7FEC07F0410EED
:100A80002C6E000E2D6ED5EC08F00009D8B4F7D707
:100A9000320E2E6E000E2F6E9DEC08F00009D8B4B9
:100AA000EED780B002D0808001D08090010E026E1F
:100AB000F40E016E6BEC08F0000E406E400E3F6EBF
:100AC0003F50ADEC07F035EC08F00009D8A4FBD797
:100AD000000E446E000E436E44BE06D04450CFE17B
:100AE000050E435CD8B0CBD7320E4324D96E000E2E
:100AF0004420DA6EDF50316E3150016E026A3C0ED6
:100B0000036E000E046E17EC07F03C0E026E000E32
:100B1000036E7FEC07F0040E3F243F6E000E402072
:100B2000406E434A442AD8D7000E296E000E026E4A
:100B30000D0E016E000E046E000E036E8CEC06F0BE
:100B400026C0D9FF27C0DAFF930EDF6E20EE01F03A
:100B50002650D9262750DA22200EDF6E080E0B6EA3
:100B6000080ED6EC07F026C013F027C014F0020ED2
:100B7000156E26C016F027C017F02A0E186E000E4C
:100B8000196E0C0E06EC04F02C6E2C50D8A41ED05E
:100B9000000E2D6E030E2D6401D00CD02D50010DD2
:100BA000F3502624D96EF4502720DA6EDF50291A2C
:100BB0002D2AF0D720EE04F02650D9262750DA222D
:100BC0002950DE18D8B402D0020E2C6E2C50120020
:100BD000056EF00E8316F00E9516959A959C9598D5
:100BE0008C9A8C9C8C98EEEC08F0300E16EC08F089
:100BF000050EE3EC08F0300E16EC08F0010EE3EC05
:100C000008F0320E16EC08F035EC08F00009D8A414
:100C1000FBD735EC08F00009D8A4FBD7055016EC3B
:100C200008F035EC08F00009D8A4FBD7080E16EC44
:100C300008F035EC08F00009D8A4FBD70F0E16EC2D
:100C400008F035EC08F00009D8A4FBD7010E16EC2B
:100C500008F035EC08F00009D8A4FBD7040E16EC18
:100C600008F035EC08F00009D8A4FBD7800EADECF5
:100C700007F01200000E086E000E076E819281943C
:100C800001C003F002C004F0D890033604367E0E93
:100C90000316000E0416800E0310056E0450066E37
:100CA000000E0A6E080E096E09500A10D8B414D04E
:100CB00005AE03D0036A032A01D0036A81500318EA
:100CC000FE0B0318816E8182D8900536063681921C
:100CD0000906D8A00A06E8D7000E0A6E080E096EAB
:100CE00010D08182D8900736083682AE03D0036ACE
:100CF000032A01D0036A0350071281920906D8A083
:100D00000A0609500A10D8A4ECD78184818207C052
:100D100001F008C002F012008192819401C005F038
:100D200002C006F0D890053606367E0E0514076E12
:100D3000086A000E0A6E080E096E09500A10D8B42F
:100D400014D007AE03D0056A052A01D0056A815088
:100D50000518FE0B0518816E8182D890073608367B
:100D600081920906D8A00A06E8D7000E0A6E080E7E
:100D7000096E13D003AE03D0056A052A01D0056AB7
:100D800081500518FE0B0518816E8182D8900336BC
:100D9000043681920906D8A00A0609500A10D8A480
:100DA000E9D781848182120081828186B3EC08F0C8
:100DB000000E026E2A0E016E000E046E8D0E036E82
:100DC0008CEC06F0000E026E2B0E016E000E046E0F
:100DD0003E0E036E8CEC06F0000E026E2D0E016EC0
:100DE000000E046E1E0E036E8CEC06F0000E026EFA
:100DF0002C0E016E000E046E000E036E8CEC06F0DD
:100E0000000E026E150E016E000E046E400E036E93
:100E10008CEC06F0000E026E110E016E000E046ED8
:100E20003D0E036E8CEC06F0C5EC08F0120001508C
:100E30000F0B086E090E086403D00850370F02D05C
:100E40000850300F086E01C005F002C006F0040E15
:100E5000076E063406320532072EFBD70550096EA1
:100E6000090E096403D00950370F02D00950300F22
:100E7000096E03C0D9FF04C0DAFF09C0DFFF20EE0E
:100E800001F00350D9260450DA2208C0DFFF20EE1B
:100E900002F00350D9260450DA22000EDF6E120051
:100EA000286E000E026E0D0E016E000E046E070E0F
:100EB000036E8CEC06F026C0D9FF27C0DAFF28C0ED
:100EC000DFFF26C013F027C014F0010E156E26C0F8
:100ED00016F027C017F02A0E186E000E196E0C0EB1
:100EE00006EC04F0296E2950D8A405D0100E2A185B
:100EF0002B10D8B402D0020E296E2950120019D03E
:100F000035EC08F00009D8A4FBD702C0F6FF03C0F7
:100F1000F7FFF86A070EF76403D00800F55005D014
:100F2000F6CFE9FFF7CFEAFFEF50F7EC07F0024A00
:100F3000032A02C0F6FF03C0F7FFF86A070EF76442
:100F400003D00800F55005D0F6CFE9FFF7CFEAFF50
:100F5000EF500009D8B41200D3D7046EF00E9516E6
:100F6000F00E83160450016E026A018E040E036EA9
:100F7000023402320132032EFBD701500F0B8312D1
:100F80008C9A8C9CFCEC08F08C88FCEC08F08C981B
:100F9000F00E831604500F0B8312FCEC08F08C88C3
:100FA000FCEC08F08C980F0E95121200126E000ED9
:100FB000116E000E106E12C001F0026A3AEC06F0DB
:100FC00001C010F002C011F012C001F0026A0B5013
:100FD0000C6E0D6A0C1C0E6E0D1C0F6E10500E1454
:100FE000036E11500F14046E8CEC06F01200016EAB
:100FF000F00E9516F00E831601380F0B0F0B8312AF
:101000008C8C8C9AFCEC08F08C88FCEC08F08C98AA
:10101000F00E831601500F0B8312FCEC08F08C8845
:10102000FCEC08F08C980F0E95121200016EF00E79
:101030009516F00E831601380F0B0F0B83128C9A46
:101040008C9CFCEC08F08C88FCEC08F08C98F00E82
:10105000831601500F0B8312FCEC08F08C88FCEC1B
:1010600008F08C980F0E951212008C8A8C9CFCEC68
:1010700008F08C88FCEC08F083A60AD08C98FCEC75
:1010800008F08C88FCEC08F08C988C9A010E120009
:101090008C98FCEC08F08C88FCEC08F08C988C9A0E
:1010A000000E1200280EE8EC05F035EC08F00009FF
:1010B000D8A4FBD7060E16EC08F035EC08F00009B2
:1010C000D8A4FBD70C0E16EC08F035EC08F000099C
:1010D000D8B41200FAD7000E056E000E046E09D0C7
:1010E000030E036E980EE82EFED7032EFCD7044A9B
:1010F000052A0150045C0550800A036E0250800AE4
:101100000358D8B01200ECD70E6E000E0D6E000E14
:101110000C6E0EC001F0026A3AEC06F001C00CF051
:1011200002C00DF00EC001F0026A0C500B10036EED
:101130000D50046E8CEC06F012002EC026F02FC06D
:1011400027F094EC05F0306E20EE05F02E50D926F5
:101150002F50DA22000EDF6E3050D8A402D0010EDC
:101160001200000E1200818600D0819600D0818688
:1011700000D0000E026E010E016E000E046E0F0E06
:10118000036E8CEC06F000D01200000E026E140EFE
:10119000016E3AEC06F001C00FF002C010F0030E31
:1011A0000B6E140E84EC08F012002CC026F02DC03B
:1011B00027F0260E50EC07F00009D8A402D0010E4B
:1011C0001200000E1200026E0D0E016EFC0EE82ED3
:1011D000FED7012EFCD7022EF7D712009C0E016E0F
:1011E000D70EE82EFED7012EFCD700F01200000E1D
:1011F000F86E000122EF05F0300EE82EFED7120047
:020000040020DA
:08000000FFFFFFFFFFFFFFFF00
:020000040030CA
:0E000000000B091EFF0080FF0FC00FE00F4035
:00000001FF
